{"abi":[{"type":"constructor","inputs":[{"name":"_feeAccount","type":"address","internalType":"address"},{"name":"_feePercent","type":"uint256","internalType":"uint256"}],"stateMutability":"nonpayable"},{"type":"function","name":"balanceOf","inputs":[{"name":"_token","type":"address","internalType":"address"},{"name":"_user","type":"address","internalType":"address"}],"outputs":[{"name":"","type":"uint256","internalType":"uint256"}],"stateMutability":"view"},{"type":"function","name":"cancelOrder","inputs":[{"name":"_id","type":"uint256","internalType":"uint256"}],"outputs":[],"stateMutability":"nonpayable"},{"type":"function","name":"depositToken","inputs":[{"name":"_token","type":"address","internalType":"address"},{"name":"_amount","type":"uint256","internalType":"uint256"}],"outputs":[],"stateMutability":"nonpayable"},{"type":"function","name":"feeAccount","inputs":[],"outputs":[{"name":"","type":"address","internalType":"address"}],"stateMutability":"view"},{"type":"function","name":"feePercent","inputs":[],"outputs":[{"name":"","type":"uint256","internalType":"uint256"}],"stateMutability":"view"},{"type":"function","name":"fillOrder","inputs":[{"name":"_id","type":"uint256","internalType":"uint256"}],"outputs":[],"stateMutability":"nonpayable"},{"type":"function","name":"makeOrder","inputs":[{"name":"_tokenGet","type":"address","internalType":"address"},{"name":"_amountGet","type":"uint256","internalType":"uint256"},{"name":"_tokenGive","type":"address","internalType":"address"},{"name":"_amountGive","type":"uint256","internalType":"uint256"}],"outputs":[],"stateMutability":"nonpayable"},{"type":"function","name":"orderCancelled","inputs":[{"name":"","type":"uint256","internalType":"uint256"}],"outputs":[{"name":"","type":"bool","internalType":"bool"}],"stateMutability":"view"},{"type":"function","name":"orderCount","inputs":[],"outputs":[{"name":"","type":"uint256","internalType":"uint256"}],"stateMutability":"view"},{"type":"function","name":"orderFilled","inputs":[{"name":"","type":"uint256","internalType":"uint256"}],"outputs":[{"name":"","type":"bool","internalType":"bool"}],"stateMutability":"view"},{"type":"function","name":"orders","inputs":[{"name":"","type":"uint256","internalType":"uint256"}],"outputs":[{"name":"id","type":"uint256","internalType":"uint256"},{"name":"user","type":"address","internalType":"address"},{"name":"tokenGet","type":"address","internalType":"address"},{"name":"amountGet","type":"uint256","internalType":"uint256"},{"name":"tokenGive","type":"address","internalType":"address"},{"name":"amountGive","type":"uint256","internalType":"uint256"},{"name":"timestamp","type":"uint256","internalType":"uint256"}],"stateMutability":"view"},{"type":"function","name":"tokens","inputs":[{"name":"","type":"address","internalType":"address"},{"name":"","type":"address","internalType":"address"}],"outputs":[{"name":"","type":"uint256","internalType":"uint256"}],"stateMutability":"view"},{"type":"function","name":"withdrawToken","inputs":[{"name":"_token","type":"address","internalType":"address"},{"name":"_amount","type":"uint256","internalType":"uint256"}],"outputs":[],"stateMutability":"nonpayable"},{"type":"event","name":"Cancel","inputs":[{"name":"id","type":"uint256","indexed":false,"internalType":"uint256"},{"name":"user","type":"address","indexed":false,"internalType":"address"},{"name":"tokenGet","type":"address","indexed":false,"internalType":"address"},{"name":"amountGet","type":"uint256","indexed":false,"internalType":"uint256"},{"name":"tokenGive","type":"address","indexed":false,"internalType":"address"},{"name":"amountGive","type":"uint256","indexed":false,"internalType":"uint256"},{"name":"timestamp","type":"uint256","indexed":false,"internalType":"uint256"}],"anonymous":false},{"type":"event","name":"Deposit","inputs":[{"name":"token","type":"address","indexed":false,"internalType":"address"},{"name":"user","type":"address","indexed":false,"internalType":"address"},{"name":"amount","type":"uint256","indexed":false,"internalType":"uint256"},{"name":"balance","type":"uint256","indexed":false,"internalType":"uint256"}],"anonymous":false},{"type":"event","name":"OrderCreated","inputs":[{"name":"id","type":"uint256","indexed":false,"internalType":"uint256"},{"name":"user","type":"address","indexed":false,"internalType":"address"},{"name":"tokenGet","type":"address","indexed":false,"internalType":"address"},{"name":"amountGet","type":"uint256","indexed":false,"internalType":"uint256"},{"name":"tokenGive","type":"address","indexed":false,"internalType":"address"},{"name":"amountGive","type":"uint256","indexed":false,"internalType":"uint256"},{"name":"timestamp","type":"uint256","indexed":false,"internalType":"uint256"}],"anonymous":false},{"type":"event","name":"Trade","inputs":[{"name":"id","type":"uint256","indexed":false,"internalType":"uint256"},{"name":"user","type":"address","indexed":false,"internalType":"address"},{"name":"tokenGet","type":"address","indexed":false,"internalType":"address"},{"name":"amountGet","type":"uint256","indexed":false,"internalType":"uint256"},{"name":"tokenGive","type":"address","indexed":false,"internalType":"address"},{"name":"amountGive","type":"uint256","indexed":false,"internalType":"uint256"},{"name":"creator","type":"address","indexed":false,"internalType":"address"},{"name":"timestamp","type":"uint256","indexed":false,"internalType":"uint256"}],"anonymous":false},{"type":"event","name":"Withdraw","inputs":[{"name":"token","type":"address","indexed":false,"internalType":"address"},{"name":"user","type":"address","indexed":false,"internalType":"address"},{"name":"amount","type":"uint256","indexed":false,"internalType":"uint256"},{"name":"balance","type":"uint256","indexed":false,"internalType":"uint256"}],"anonymous":false}],"bytecode":{"object":"0x608060405234801561001057600080fd5b5060405161111d38038061111d83398101604081905261002f91610058565b600080546001600160a01b0319166001600160a01b039390931692909217909155600155610092565b6000806040838503121561006b57600080fd5b82516001600160a01b038116811461008257600080fd5b6020939093015192949293505050565b61107c806100a16000396000f3fe608060405234801561001057600080fd5b50600436106100df5760003560e01c806367b830ad1161008c5780639e281a98116100665780639e281a98146101fa578063a85c38ef1461020d578063e9c18966146102c7578063f7888aec146102ea57600080fd5b806367b830ad146101cb5780637fd6f15c146101de5780639a5c90aa146101e757600080fd5b8063508493bc116100bd578063508493bc14610148578063514fcac71461017357806365e17c9d1461018657600080fd5b80632453ffa8146100e4578063338b5dea146101005780634a93e0da14610115575b600080fd5b6100ed60045481565b6040519081526020015b60405180910390f35b61011361010e366004610e54565b610330565b005b610138610123366004610e7e565b60066020526000908152604090205460ff1681565b60405190151581526020016100f7565b6100ed610156366004610e97565b600260209081526000928352604080842090915290825290205481565b610113610181366004610e7e565b6104a2565b6000546101a69073ffffffffffffffffffffffffffffffffffffffff1681565b60405173ffffffffffffffffffffffffffffffffffffffff90911681526020016100f7565b6101136101d9366004610e7e565b6105a5565b6100ed60015481565b6101136101f5366004610eca565b6106ed565b610113610208366004610e54565b6108aa565b61027461021b366004610e7e565b60036020819052600091825260409091208054600182015460028301549383015460048401546005850154600690950154939573ffffffffffffffffffffffffffffffffffffffff938416959084169492939091169187565b6040805197885273ffffffffffffffffffffffffffffffffffffffff9687166020890152948616948701949094526060860192909252909216608084015260a083019190915260c082015260e0016100f7565b6101386102d5366004610e7e565b60056020526000908152604090205460ff1681565b6100ed6102f8366004610e97565b73ffffffffffffffffffffffffffffffffffffffff918216600090815260026020908152604080832093909416825291909152205490565b6040517f23b872dd0000000000000000000000000000000000000000000000000000000081523360048201523060248201526044810182905273ffffffffffffffffffffffffffffffffffffffff8316906323b872dd90606401602060405180830381600087803b1580156103a457600080fd5b505af11580156103b8573d6000803e3d6000fd5b505050506040513d601f19601f820116820180604052508101906103dc9190610f0e565b6103e557600080fd5b73ffffffffffffffffffffffffffffffffffffffff82166000908152600260209081526040808320338452909152902054610421908290610f66565b73ffffffffffffffffffffffffffffffffffffffff831660008181526002602090815260408083203380855290835292819020859055805193845290830191909152810183905260608101919091527fdcbc1c05240f31ff3ad067ef1ee35ce4997762752e3a095284754544f4c709d7906080015b60405180910390a15050565b6000818152600360205260409020600181015473ffffffffffffffffffffffffffffffffffffffff1633146104d657600080fd5b805482146104e357600080fd5b60008281526005602081815260409283902080547fffffffffffffffffffffffffffffffffffffffffffffffffffffffffffffff001660011790558354600285015460038601546004870154948701548651938452339484019490945273ffffffffffffffffffffffffffffffffffffffff91821695830195909552606082019490945292909116608083015260a08201524260c08201527f77de1da0be5f2d3b110d05c6694e5c4ff2d9da7cd23d84353ecf78c7b5acec619060e001610496565b6000811180156105b757506004548111155b610622576040517f08c379a000000000000000000000000000000000000000000000000000000000815260206004820152601460248201527f4f7264657220646f7365206e6f7420657869737400000000000000000000000060448201526064015b60405180910390fd5b60008181526006602052604090205460ff161561063e57600080fd5b60008181526005602052604090205460ff161561065a57600080fd5b6000818152600360208190526040909120805460018201546002830154938301546004840154600585015494956106b29573ffffffffffffffffffffffffffffffffffffffff94851694918216939290911690610a43565b54600090815260066020526040902080547fffffffffffffffffffffffffffffffffffffffffffffffffffffffffffffff0016600117905550565b73ffffffffffffffffffffffffffffffffffffffff8216600090815260026020908152604080832033845290915290205481111561072a57600080fd5b6004805490600061073a83610f7e565b90915550506040805160e0810182526004805480835233602080850182815273ffffffffffffffffffffffffffffffffffffffff8b8116878901908152606088018c81528b831660808a0190815260a08a018c81524260c08c0181815260009a8b52600398899052998d90209b518c55955160018c0180549187167fffffffffffffffffffffffff0000000000000000000000000000000000000000928316179055935160028c0180549187169186169190911790559151958a019590955593518888018054919093169116179055905160058601559151600690940193909355905492517ff4e94e11847dd5a076a1f8bc24ec98dfa58292de438d62656742b833fe022ec09361089c9390929091899189918991899196875273ffffffffffffffffffffffffffffffffffffffff958616602088015293851660408701526060860192909252909216608084015260a083019190915260c082015260e00190565b60405180910390a150505050565b73ffffffffffffffffffffffffffffffffffffffff821660009081526002602090815260408083203384529091529020548111156108e757600080fd5b6040517fa9059cbb0000000000000000000000000000000000000000000000000000000081523360048201526024810182905273ffffffffffffffffffffffffffffffffffffffff83169063a9059cbb90604401602060405180830381600087803b15801561095557600080fd5b505af1158015610969573d6000803e3d6000fd5b505050506040513d601f19601f8201168201806040525081019061098d9190610f0e565b5073ffffffffffffffffffffffffffffffffffffffff821660009081526002602090815260408083203384529091529020546109ca908290610fb7565b73ffffffffffffffffffffffffffffffffffffffff831660008181526002602090815260408083203380855290835292819020859055805193845290830191909152810183905260608101919091527ff341246adaac6f497bc2a656f546ab9e182111d630394f0c57c710a59a2cb56790608001610496565b6000606460015485610a559190610fce565b610a5f919061100b565b73ffffffffffffffffffffffffffffffffffffffff86166000908152600260209081526040808320338452909152902054909150841115610b22576040517f08c379a000000000000000000000000000000000000000000000000000000000815260206004820152602860248201527f46696c6c657220696e73756666696369656e742062616c616e636520666f722060448201527f746f6b656e4765740000000000000000000000000000000000000000000000006064820152608401610619565b73ffffffffffffffffffffffffffffffffffffffff8084166000908152600260209081526040808320938a1683529290522054821115610be4576040517f08c379a000000000000000000000000000000000000000000000000000000000815260206004820152602660248201527f43726561746f7220696e73756666696369656e7420746f6b656e47697665206260448201527f616c616e636500000000000000000000000000000000000000000000000000006064820152608401610619565b73ffffffffffffffffffffffffffffffffffffffff85166000908152600260209081526040808320338452909152902054610c20908590610fb7565b73ffffffffffffffffffffffffffffffffffffffff86166000908152600260209081526040808320338452909152902055610c5b8185610fb7565b73ffffffffffffffffffffffffffffffffffffffff8087166000908152600260209081526040808320938b1683529290522054610c989190610f66565b73ffffffffffffffffffffffffffffffffffffffff86811660009081526002602090815260408083208b8516845290915280822093909355805490911681522054610ce4908290610f66565b73ffffffffffffffffffffffffffffffffffffffff80871660009081526002602081815260408084208454861685528252808420959095558784168352908152838220928a168252919091522054610d3d908390610fb7565b73ffffffffffffffffffffffffffffffffffffffff8481166000908152600260209081526040808320938b16835292905281812092909255338252902054610d86908390610f66565b73ffffffffffffffffffffffffffffffffffffffff848116600081815260026020908152604080832033808552908352928190209590955584518c8152908101919091528883169381019390935260608301879052608083015260a08201849052871660c08201524260e08201527f0dddf4182dc0fc1a311cb75f049c97403c6b8a99cf6b2229a36e7c526acb3f81906101000160405180910390a150505050505050565b803573ffffffffffffffffffffffffffffffffffffffff81168114610e4f57600080fd5b919050565b60008060408385031215610e6757600080fd5b610e7083610e2b565b946020939093013593505050565b600060208284031215610e9057600080fd5b5035919050565b60008060408385031215610eaa57600080fd5b610eb383610e2b565b9150610ec160208401610e2b565b90509250929050565b60008060008060808587031215610ee057600080fd5b610ee985610e2b565b935060208501359250610efe60408601610e2b565b9396929550929360600135925050565b600060208284031215610f2057600080fd5b81518015158114610f3057600080fd5b9392505050565b7f4e487b7100000000000000000000000000000000000000000000000000000000600052601160045260246000fd5b60008219821115610f7957610f79610f37565b500190565b60007fffffffffffffffffffffffffffffffffffffffffffffffffffffffffffffffff821415610fb057610fb0610f37565b5060010190565b600082821015610fc957610fc9610f37565b500390565b6000817fffffffffffffffffffffffffffffffffffffffffffffffffffffffffffffffff048311821515161561100657611006610f37565b500290565b600082611041577f4e487b7100000000000000000000000000000000000000000000000000000000600052601260045260246000fd5b50049056fea2646970667358221220616d51668a080c9ebe6ce049d48de6119e48be67e6995da4fe82f6efe352cf1664736f6c63430008090033","linkReferences":{}},"methodIdentifiers":{"balanceOf(address,address)":"f7888aec","cancelOrder(uint256)":"514fcac7","depositToken(address,uint256)":"338b5dea","feeAccount()":"65e17c9d","feePercent()":"7fd6f15c","fillOrder(uint256)":"67b830ad","makeOrder(address,uint256,address,uint256)":"9a5c90aa","orderCancelled(uint256)":"e9c18966","orderCount()":"2453ffa8","orderFilled(uint256)":"4a93e0da","orders(uint256)":"a85c38ef","tokens(address,address)":"508493bc","withdrawToken(address,uint256)":"9e281a98"},"id":0}